:020000040800F2
:1000000000280020B9240008012500080125000867
:100010000125000801250008012500080000000056
:1000200000000000000000000000000001250008A2
:10003000012500080000000001250008731B0008CE
:1000400001250008012500080125000801250008F8
:100050000125000801250008611C0008671C000834
:100060006D1C0008731C0008791C0008012500089D
:1000700001250008012500080125000801250008C8
:1000800001250008012500080125000801250008B8
:100090000125000801250008012500087F1C000833
:1000A00001250008F9180008012500080D190008AD
:1000B000111900082519000800000000012500089A
:1000C00001250008000000000000000001250008D4
:1000D00000000000012500080125000800000000C4
:1000E000A71C0008012500080125000800000000E9
:1000F0000000000000000000000000000000000000
:0C01000000000000000000005FF808F1A3
:10010C0010B5054C237833B9044B13B10448AFF345
:10011C0000800123237010BD84000020000000002B
:10012C00FC2A000808B5034B1BB103490348AFF385
:10013C00008008BD0000000088000020FC2A000898
:10014C0038B505460C46C820012102F0B3FA00214F
:10015C00C92002F0AFFA2946032002F0DFF9012191
:10016C001E2002F0A7FA00211F2002F0A3FA21465C
:10017C00BDE83840022002F0D1B910B50446012187
:10018C00C82002F097FA0121C92002F093FAFF214E
:10019C00032002F0C3F901211E2002F08BFA00218A
:1001AC001F2002F087FA2146BDE81040022002F021
:1001BC00B5B910B504460121C82002F07BFA002124
:1001CC00C92002F077FA2146032002F0A7F9012199
:1001DC001E2002F06FFA01211F2002F06BFABDE81D
:1001EC001040FF21022002F099B908B50121C82066
:1001FC0002F060FA0121C92002F05CFAFF21032011
:10020C0002F08CF901211E2002F054FA01211F206A
:10021C0002F050FABDE80840FF21022002F07EB93E
:10022C0008B50021C02002F0E7F90021C12002F03E
:10023C00E3F90021C22002F0DFF90021C32002F013
:10024C00DBF90021C42002F0D7F90121C82002F00B
:10025C00D3F90121C92002F0CFF90121032002F0CA
:10026C00CBF901211E2002F0C7F901211F2002F059
:10027C00C3F90220012102F0BFF9FFF7B6FFBDE878
:10028C000840642002F090BAF8B5C02002F04CFA95
:10029C000746C12002F048FA0646C22002F044FA92
:1002AC000446C32002F040FA0546C42002F03CFA92
:1002BC00012F1CD1012E07D1CCBB012D31D101282E
:1002CC002CD19621962007E046BB44B9012D25D1AF
:1002DC00012823D196216420FFF732FF13E0012C73
:1002EC001CD1012D1AD1012818D1B421F3E7AFB9D3
:1002FC00012E0DD1012C11D1012D0FD101280DD1C1
:10030C00B420FFF73AFFBDE8F8400A2002F04CBADF
:10031C0026B9012CF0D02C430443D2D0FFF765FF53
:10032C00F1E7002DFAD10128F8D16421CAE7012C9C
:10033C00F4D125B9012804D16421B420CCE7012DD6
:10034C00ECD10028EAD1B420FFF733FFDBE770478C
:10035C0038B50E4B05461A784FF47A73B3FBF2F3AB
:10036C000B4A1068B0FBF3F000F08AF8044658B959
:10037C000F2D09D8024629464FF0FF3000F042F805
:10038C002046044B1D6038BD0120FCE70000002016
:10039C002000002004000020074A08B51368032041
:1003AC0043F01003136000F01BF80020FFF7D0FFA0
:1003BC00FFF7CDFF002008BD00200240034A044B8C
:1003CC0011681B780B441360704700BFA00000201D
:1003DC0000000020014B1868704700BFA0000020EF
:1003EC0007490302CA6803F4E06322F4E0621204D2
:1003FC00120C134343F0BF6343F40033CB607047DC
:10040C0000ED00E0154B30B5DC68C4F30224C4F1F8
:10041C000703251D042B28BF0423062D4FF0FF35A1
:10042C0094BF0024033C05FA03F321EA0303A5401F
:10043C0022EA0502A340002843EA0203ACBF00F104
:10044C006040074A4FEA0313DBB2ABBF00F56140D3
:10045C0000F00F0080F80033135430BD00ED00E0C5
:10046C0014ED00E0002807DB01234109034A00F0EA
:10047C001F00834042F82130704700BF00E100E0CC
:10048C000138B0F1807F0BD24FF0E023F021054A08
:10049C00586182F823100020072298611A61704776
:1004AC000120704700ED00E0704708B5FFF7FCFF36
:1004BC0008BD704710B5044650B1437903F0FF02F4
:1004CC0013B90271FFF7F5FF01230020637110BD12
:1004DC000120FCE7044A08B55169014202D0506181
:1004EC0001F0A2FB08BD00BF000401402DE9F3415F
:1004FC00054638B30368DB0710D42B689F075ED41E
:10050C002B68190700F195802B685A0700F1C18000
:10051C00EB69002B40F02C81002029E0904C6368A3
:10052C0003F00C03042B07D0636803F00C03082BB7
:10053C000AD16368DE0307D523689C03DDD56B689D
:10054C00002BDAD1012013E06B68B3F5803F12D198
:10055C00236843F480332360FFF73CFF064623688F
:10056C009803CAD4FFF736FF801B6428F7D9032001
:10057C0002B0BDE8F0819BB9236823F4803323607B
:10058C00236823F480232360FFF724FF06462368A7
:10059C009903B2D5FFF71EFF801B6428F7D9E6E755
:1005AC00B3F5A02F236803D143F480232360CFE756
:1005BC0023F480332360236823F48023CBE7684C37
:1005CC00636813F00C0F07D0636803F00C03082B5F
:1005DC0010D16368DA030DD423689B0702D52B690D
:1005EC00012BAFD123686A6923F0F80343EAC203F5
:1005FC00236085E72A695B4B6AB101221A60FFF719
:10060C00E9FE064623689F07ECD4FFF7E3FE801B48
:10061C000228F7D9ABE71A60FFF7DCFE0646236821
:10062C0098077FF56DAFFFF7D5FE801B0228F6D932
:10063C009DE7AA694A4E4B4BE2B10122C3F88024D4
:10064C00FFF7C8FE0446736A9B070DD54FF4FA52A8
:10065C00454B1B68B3FBF2F3019300BF019B5A1E81
:10066C000192002BF9D14FE7FFF7B4FE001B0228D3
:10067C00E9D97CE7C3F88024FFF7ACFE0446736A23
:10068C009F077FF541AFFFF7A5FE001B0228F6D9A7
:10069C006DE7334CE369D80024D40127E36943F0B8
:1006AC008053E361E36903F080530093009B2F4E6A
:1006BC003368D90518D5EB68012B26D1236A43F092
:1006CC0001032362FFF786FE41F288380646236A4F
:1006DC009B073FD5002F3FF41BAFE36923F08053FA
:1006EC00E36115E70027E2E7336843F48073336076
:1006FC00FFF770FE80463368DA05DCD4FFF76AFE3C
:10070C00A0EB08006428F6D931E7ABB9236A41F2B3
:10071C00883823F001032362236A23F00403236245
:10072C00FFF758FE0646236A9807D3D5FFF752FE0B
:10073C00801B4045F7D91AE7052B236A03D143F0F8
:10074C0004032362BAE723F001032362236A23F034
:10075C000403B6E7FFF73EFE801B4045B7D906E71A
:10076C0000100240000042422000002000700040B7
:10077C002A4C626802F00C02082A3ED00022022B9E
:10078C00274B1A662CD1FFF725FE064623689901E4
:10079C0020D42B6AB3F5803F05D16268A96822F496
:1007AC0000320A436260696A62680B4322F4741275
:1007BC001343012263601A4B1A66FFF70BFE0546C2
:1007CC0023689A013FF5A8AEFFF704FE401B0228F0
:1007DC00F6D9CCE6FFF7FEFD801B0228D6D9C6E67B
:1007EC00FFF7F8FD054623689B017FF595AEFFF7F3
:1007FC00F1FD401B0228F6D9B9E6012B3FF4A2AE5D
:10080C0060682B6A00F480329A427FF49BAE6B6A6C
:10081C0000F47010C01A18BF0120A9E600100240A5
:10082C00000042420D4A536803F00C01082912D112
:10083C000B48C3F38341DB03405C09D55368094A79
:10084C00C3F340435043084AD35CB0FBF3F070470A
:10085C00064B584370470348704700BF00100240D6
:10086C00162B000800127A00142B000800093D001A
:10087C002DE9F0410D46044610B90120BDE8F08188
:10088C00444A136803F007038B4228D321688E0770
:10089C0030D4CA0743D43F4A136803F00703AB4272
:1008AC0065D822683C4D12F0040F6CD1130706D5A5
:1008BC006B68226923F4605343EAC2036B60FFF751
:1008CC00B1FF6B68354AC3F30313D35CD840344B88
:1008DC001860344B1868FFF73BFD0020CEE7136817
:1008EC0023F007030B431360136803F007038B42D9
:1008FC00C3D1CBE7284B11F0040F1EBF5A6842F44A
:10090C00E0625A60080742BF5A6842F460525A606B
:10091C005A68A06822F0F00202435A60B9E7626894
:10092C001D4E012A33681AD113F4003FA5D0736809
:10093C0041F2883823F0030313437360FFF74AFD39
:10094C0007467368626803F00C03B3EB820FA2D006
:10095C00FFF740FDC01B4045F3D903208EE7022A68
:10096C0002D113F0007FE1E713F0020FDEE713680A
:10097C0023F007032B431360136803F00703AB4208
:10098C007FF47BAF8DE76B68E16823F4E0630B4386
:10099C006B608BE700200240001002407C2B0008AB
:1009AC002000002004000020044B054A5B68C3F3C0
:1009BC000223D35C034A1068D840704700100240F1
:1009CC00742B000820000020044B054A5B68C3F31D
:1009DC00C223D35C034A1068D84070470010024011
:1009EC00742B0008200000200F2303600B4B5A6867
:1009FC0002F0030242605A6802F0F00282605A6808
:100A0C0002F4E062C2605B68DB0803F4E06303613C
:100A1C00034B1B6803F007030B6070470010024088
:100A2C000020024003682DE9F3410546D80720D584
:100A3C00364CE369D9002AD40126E36943F080538C
:100A4C00E361E36903F080530193019B304F3B68F2
:100A5C00DA051ED5236A13F440732ED1236A6A6813
:100A6C0023F44073134323621EB1E36923F08053D4
:100A7C00E3612A68910706D52449A8684B6823F4DA
:100A8C00404303434B60D30637D4002012E00026CA
:100A9C00DCE73B6843F480733B60FFF79BFC8046CC
:100AAC003B68DB05D6D4FFF795FCA0EB0800642867
:100ABC00F6D9032002B0BDE8F0816A6802F44072F6
:100ACC009A42CBD00120134A236AC2F8400400207A
:100ADC0023F44071DF07C2F840042162BED5FFF752
:100AEC0079FC41F288380746236A9807B6D4FFF799
:100AFC0071FCC01B4045F7D9DBE7044AE968536831
:100B0C0023F480030B435360BFE700BF0010024087
:100B1C000070004000004242036A026A70B522F085
:100B2C0001020262446882690D6822F073022A4352
:100B3C008D6823F002032B430A4DA8420BD1CD68DC
:100B4C0023F008032B4324F44074D1E905563543B4
:100B5C0023F004032C43446082614A6842630362BD
:100B6C0070BD00BF002C0140036A026A70B522F40C
:100B7C00807202624468C2690D6822F073022A43D3
:100B8C008D6823F4007343EA05230B4DA8420DD165
:100B9C00CD6823F4006343EA052324F44054D1E9DF
:100BAC000556354323F4806344EA05144460C2615E
:100BBC004A68C263036270BD002C0140036A026A7A
:100BCC0030B522F4805202624468C2690D6822F486
:100BDC00E64242EA05228D6823F4005343EA0533CA
:100BEC00064DA84202BF4D6924F4804444EA8514A2
:100BFC004460C2614A680264036230BD002C01404B
:100C0C0090F83D30012B18D102230D4A80F83D306D
:100C1C000368934206D0B3F1804F03D0A2F594320F
:100C2C00934204D19A6802F00702062A03D01A688C
:100C3C0042F001021A60002070470120704700BF8B
:100C4C00002C014090F83C200346012A4FF0020092
:100C5C0009D01A6883F83D0051610020012283F805
:100C6C003C0083F83D20704770477047036870B5AF
:100C7C00DD681E690446B1070DD5AA070BD56FF0C8
:100C8C0002021A61012202779B699B0769D000F06E
:100C9C00A0FE00232377710710D56A070ED56FF0DD
:100CAC000402236820461A61022222779B6913F4FE
:100CBC00407F5CD000F08DFE0023237733070FD5E7
:100CCC0028070DD56FF00802236820461A6104220C
:100CDC002277DB69990750D000F07BFE0023237745
:100CEC00F20610D5EB060ED56FF0100223682046E5
:100CFC001A6108222277DB6913F4407F43D000F09D
:100D0C0068FE00232377F00708D5E90706D56FF0B6
:100D1C000102236820461A6100F038FE320608D51D
:100D2C002B0606D56FF08002236820461A6100F06E
:100D3C00F0FA700608D5690606D56FF040022368F4
:100D4C0020461A61FFF791FFB20622D5AB0620D5DB
:100D5C006FF0200223682046BDE870401A6100F055
:100D6C00D7BA00F034FE2046FFF77EFF91E700F083
:100D7C002EFE2046FFF778FF9EE700F028FE204667
:100D8C00FFF772FFAAE700F022FE2046FFF76CFF88
:100D9C00B7E770BD154A0368904206D0B0F1804F9A
:100DAC0003D0A2F59432904207D14A6823F0700325
:100DBC001343CA6823F4407313434A6923F0800336
:100DCC00134303608B68C3620B688362074B9842C2
:100DDC0004BF0B690363012343610369DB0742BF53
:100DEC00036923F001030361704700BF002C01402D
:100DFC0010B5044630B390F83D3003F0FF021BB938
:100E0C0080F83C2001F072FA0223206884F83D300F
:100E1C00211DFFF7BFFF0123002084F8463084F822
:100E2C003E3084F83F3084F8403084F8413084F808
:100E3C00423084F8433084F8443084F8453084F8E8
:100E4C003D3010BD0120FCE7036A026A70B522F048
:100E5C0010020262446882690D6822F4E64242EA9A
:100E6C0005228D6823F0200343EA05130B4DA8429D
:100E7C000DD1CD6823F0800343EA051324F44064BC
:100E8C00D1E90556354323F0400344EA8504446018
:100E9C0082614A688263036270BD00BF002C01400E
:100EAC0010B590F83C300446012B1DD0082A17D001
:100EBC0007D862B1042A0FD00120002384F83C30FB
:100ECC0010BD0C2AF8D10068FFF778FE02E000682C
:100EDC00FFF722FE0020F0E70068FFF7B5FFF9E707
:100EEC000068FFF741FEF5E70220E9E738B590F816
:100EFC003C300446012B4FD00120082A84F83C00DA
:100F0C003AD006D8BAB1042A26D0002384F83C3053
:100F1C0038BD0C2AF9D12068FFF750FEC3690A6965
:100F2C0043F40063C361C36923F48063C361C36981
:100F3C0043EA02232EE02068FFF7EEFD83690A697D
:100F4C0043F008038361836923F00403836183699D
:100F5C00134383610020D8E72068FFF775FF83698E
:100F6C000A6943F400638361836923F480638361BA
:100F7C00836943EA0223ECE72068FFF7F5FDC369B8
:100F8C000A6943F00803C361C36923F00403C36116
:100F9C00C3691343C361DDE70220B9E770B5056A85
:100FAC00046A0F4E24F001040462B042846912D02A
:100FBC00B0F1804F0FD0A6F59436B0420BD044F070
:100FCC00010263F3071201F00A0125F00A03194329
:100FDC008261016270BD24F003042243F1E700BF7B
:100FEC00002C0140F8B590F83C300546012B0C461E
:100FFC0000F081800120082A85F83C005BD006D8DF
:10100C0042B3042A35D0002385F83C30F8BD0C2AB5
:10101C00F9D1D1E900272B68CE68186A196A120336
:10102C0021F480511962D96920F4005021F44071E7
:10103C0041EA072102F4005266F30F310243D961F1
:10104C001A62DA69A16822F44062DA61DA6942EA6A
:10105C0001224EE02868CB6806C9FFF79FFF836921
:10106C00A26823F00C03836183691343836100201E
:10107C00C9E72B68D1E90027186ACE68196A1201F2
:10108C0021F010011962996920F0A00021F440713F
:10109C0041EA072102F0A00266F30F310243996185
:1010AC001A629A69A16822F440629A619A6942EACA
:1010BC0001229A61DBE72B68D1E90021186A1E6ACC
:1010CC00E76826F480761E62DE69120226F00306BB
:1010DC00314320F4007002F4007267F307110243ED
:1010EC00D9611A62DA69A16822F00C02DA61DA6954
:1010FC000A43DA61BBE7022088E710B50124036AD2
:10110C0001F01F018C4023EA04030362036A8A4046
:10111C001A43026210BD000008B529B990F83E30A0
:10112C00012B1DD001202EE0042907D190F83F306F
:10113C00012BF7D1022380F83F3014E0082907D1A6
:10114C0090F84030012BEDD1022380F840300AE0BA
:10115C0090F84130012BE5D1022380F8413002E0B8
:10116C00022380F83E3000680122FFF7C6FF0D4BCA
:10117C00984209D0B0F1804F0BD1836803F007037C
:10118C00062B09D1002008BD436C43F40043436493
:10119C00F3E7054B9842F0D0036843F0010303607A
:1011AC00F0E700BF002C014000040040FFF7B4BF83
:1011BC0008B5034621BB90F83E0093F84220C0B21C
:1011CC000128D2B249D1012A19D1022271BB83F86C
:1011DC003E2083F8422018680122FFF78EFF204B37
:1011EC00984206D0B0F1804F03D0A3F594339842C7
:1011FC002ED1836803F00703062B29D1002008BDEC
:10120C00042905D190F83F0093F84320C0B2D7E7EA
:10121C0008290BBF90F8400093F8410093F8442044
:10122C0093F845200CBFC0B2C0B2C9E7042904D161
:10123C0083F83F2083F84320CDE708290BBF83F8C0
:10124C00402083F8412083F8442083F84520C2E7EE
:10125C00036843F001030360D0E70120CFE700BF30
:10126C00002C014010B50424036A01F00F018C40DE
:10127C0023EA04030362036A8A401A43026210BD24
:10128C0008B529B990F84230012B1DD001203AE065
:10129C00042907D190F84330012BF7D1022380F8B1
:1012AC00433014E0082907D190F84430012BEDD1DC
:1012BC00022380F844300AE090F84530012BE5D148
:1012CC00022380F8453002E0022380F842300068A7
:1012DC000422FFF7C7FF436C43F4004343640A4BFB
:1012EC00984206D0B0F1804F03D0A3F594339842C6
:1012FC0004D1836803F00703062B03D0036843F083
:10130C0001030360002008BD002C0140FFF7B8BFAB
:10131C0070477047836810B504462BB10322014611
:10132C0098470023C4E9023310BD836810B5044606
:10133C0013B1032201469847204610BD4B1E032BC8
:10134C0000D9FEE78900081F704700000139435C93
:10135C0013F0100004D0022916D80C4A32F81100F0
:10136C00DB0712D503290FD8DFE801F00205080BC3
:10137C0040F00100704740F01000704740F480705E
:10138C00704740F480507047FEE770472E2B0008E2
:10139C000139032900D9FEE7014B585C704700BFA7
:1013AC002A2B00080139032900D9FEE7014B585CB0
:1013BC00704700BF262B00082DE9F0410E4604466D
:1013CC00FFF7BCFF06F1060805463146204604EB44
:1013DC000818FFF7DDFFD8F808302BB1C24323699A
:1013EC001A61DA680243DA60771E04EB47039B88C4
:1013FC000B2B49D8DFE803F05118181806061818FB
:10140C004A4A4A2AE35DDE0604D5294604F1100057
:10141C00FFF77CFFE35DD80736D5294604F11000B1
:10142C00BDE8F041FFF7C2BEE35DD90604D52946FD
:10143C0004F11000FFF724FFE35DDA0724D52946F9
:10144C0004F11000BDE8F041FFF766BE294604F137
:10145C001000FFF7ADFE31462046FFF7A3FF014613
:10146C0006462046FFF772FF25692B6A1843D8F809
:10147C000830286243B131462046FFF789FFC34349
:10148C002B61EB681843E860BDE8F081294604F154
:10149C001000BDE8F041FFF78BBE23691B68DB072A
:1014AC00F2D404F11000BDE8F041FFF7A9BB70B510
:1014BC00012504462946861C36F8023F23B12946ED
:1014CC002046FFF779FF00210135052DF4D1A36EDD
:1014DC003BB16FF0010223691A61DA6842F0010234
:1014EC00DA6049B123691B68DB0705D404F11000ED
:1014FC00BDE87040FFF784BB70BD00002DE9F043E0
:10150C008DB0044698460F46FFF718FF4FF6FF7351
:10151C001646059305462369C0B95B6B00220693FA
:10152C000123CDE902329DF85030CDE90922079212
:10153C0008920B92019204930B2E1DD8DFE806F053
:10154C000F1545484A5355575B596264042801D11D
:10155C009B6BE3E708280CBFDB6B1B6CDEE705928B
:10156C002A4605A904F1100004E010232A4605932D
:10157C0005A9E018FFF794FC013F04EB47039E809C
:10158C0006B3B8F1FF3F1DD0404600F0EDFEA84277
:10159C0064D140463249083E00F0CAFD032E05D8FE
:1015AC00404600F06BFF002101F026F840462C4924
:1015BC0000F0E7FD10F4801F0CBF01221022E35D48
:1015CC001343E3550DB0BDE8F08320230593C7E723
:1015DC003023FBE760232A4605A904F1100005938C
:1015EC00FFF784FCC8E77023F5E75023EEE74023B0
:1015FC00ECE7022301932A4601A904F11000FFF73E
:10160C00F1FCB9E70A23F5E74046154900F0B9FDAE
:10161C0010F4801000D0FEE7012304F110092A46D3
:10162C00019001A948460293FFF7DCFC394620469D
:10163C00FFF7B8FE431EE25C014642F00102E254A1
:10164C000B2204EB43039A8002232046CDE901339D
:10165C00FFF774FE01A902464846D0E7FEE700BF3B
:10166C008C2B0008013903299ABF00EB41008088BC
:10167C000020704701211030FFF7E4BA03691868A5
:10168C0000F00100704710B502460C46FFF7F6FF5C
:10169C0080B9CB68DB070ED5CB68104623F001036D
:1016AC00CB60FFF7E7FF6FF001032361E36843F0C2
:1016BC000103E36010BD1046BDE81040FFF7DABF30
:1016CC00084B984207D0B0F1804F06D0A3F5943365
:1016DC00984204D0FEE7002070470120704702209A
:1016EC00704700BF002C0140024670B5044652F80A
:1016FC00100FFFF7E5FF0546104600F0A3FD002391
:10170C00084AE36042F8253004F1600604F1B005A4
:10171C00B54204D0103D2846FFF707FEF8E72046F7
:10172C0070BD00BFA4000020F8B504460846FFF7C2
:10173C00C7FF236903B1FEE71B4D04F10C0245F80A
:10174C0020200E2204F110063046C4E90C33C4E903
:10175C000E33C4E91033C4E91623216184F82C300C
:10176C00A36484F84C3084F84D30E46000F036FD0E
:10177C0004F1600504F1B00728461035FFF7CAFDE7
:10178C00BD42F9D100234FF6FF72C4E90033C4E91E
:10179C000632C4E90833A360636180233046A36238
:1017AC00BDE8F840FFF724BBA400002010B586B0BC
:1017BC0014220446002101A801F0C6F80023694652
:1017CC0001A80093FFF710F9206900F0B7FD01287C
:1017DC0002D002280FD0FEE7049CFFF7E5F8B4F521
:1017EC00C06F05D00BD824F48074B4F5806F00D191
:1017FC00400006B010BD059CFFF7E6F8EFE7B4F526
:10180C00E06FF4E7012A38B505460C460BD0022AE6
:10181C0016D004B1013C29692846CC62EC61BDE8C4
:10182C003840FFF730BFFFF7C1FF084BB0FBF3F0B8
:10183C0044432A69230C93620133B4FBF3F4E8E7C5
:10184C00FFF7B4FFB0FBF4F4F3E700BF40420F0026
:10185C00F8B5054614461A46FFF770FD2B69822A27
:10186C009E6A074606F1010629D01FD8102A11D806
:10187C0052BB4FF6FF722969CB6A934203D1B4F580
:10188C00803F08BF1C4637BB4C632846BDE8F84078
:10189C00FFF7F9BE812AECD12846FFF787FF124BE0
:1018AC00B0FBF3F06043B0FBF6F4E2E7832AE0D13F
:1018BC00DB6A03FB04436424B3FBF4F4D9E7284646
:1018CC00FFF774FF6643EEE7DB6A03FB0443012476
:1018DC009440013CF0E7042F01D18C63D5E7082F2D
:1018EC000CBFCC630C64D0E740420F00034B18686C
:1018FC0010B10430FFF7BAB9704700BFA400002044
:10190C00FFF7F4BF034B586810B10430FFF7AEB9C2
:10191C00704700BFA4000020034B986810B104303E
:10192C00FFF7A4B9704700BFA40000200022C0E953
:10193C000022C0E902227047F8B504460E4600F1B9
:10194C00600500F1B00728461035FFF7EFFFBD42E8
:10195C00F9D10023204631462361FFF7E5FE2046EE
:10196C00F8BD826810B50AB901F074F8C368BDE817
:10197C001040184708B500B9FEE700F02DFC0068D0
:10198C00836E13B16030FFF7ECFF08BDFFF7F2BFB9
:10199C0010B500B9FEE7037F013B072B10D8DFE839
:1019AC0003F004140F100F0F0F12012400F014FC9D
:1019BC000068063400EB041083680BB1FFF7D1FF0D
:1019CC0010BD0324F2E70424F0E70224EEE7FFF74E
:1019DC00DFBFFFF7DDBF00F0F9BE00F0FFBE000077
:1019EC0084B0032834D8DFE800F0020F1B27194B12
:1019FC0019489A6942F004029A619B6903F0040346
:101A0C000093009B04B07047124B14489A6942F043
:101A1C0008029A619B6903F008030193019BF1E7AB
:101A2C000C4B0F489A6942F010029A619B6903F0C3
:101A3C0010030293029BE5E7064B0A489A6942F0B1
:101A4C0020029A619B6903F020030393039BD9E75F
:101A5C000020D7E70010024000080140000C0140B4
:101A6C0000100140001401402DE9F3478A46244937
:101A7C0099469046064600F073FBFFF721FE214F76
:101A8C00054657F8203073B9B020FFF7A4FF1C4966
:101A9C000446304600F064FB01462046FFF74CFF3D
:101AAC0057F825301C60164930461C6800F069FB5D
:101ABC00C0F3C43529462046FFF7D4FD0428074659
:101ACC0007D0002304220093294633462046FFF713
:101ADC0015FD022251462046FFF794FE4B46424626
:101AEC0029462046FFF7B4FE042F05D0204602B04D
:101AFC00BDE8F047FFF7DBBC02B0BDE8F08700BFE4
:101B0C008C2B0008A4000020F8B51349064600F001
:101B1C0027FBFFF7D5FD114F054657F8203073B959
:101B2C00B020FFF758FF0C490446304600F018FB74
:101B3C0001462046FFF700FF57F825301C601C6853
:101B4C0044B12046FFF7D0FD2046BDE8F840B02157
:101B5C00FFF743BFF8BD00BF8C2B0008A40000208A
:101B6C00FEF738BC704708B5FEF728FCFEF79DFC65
:101B7C00FFF7F8FF08BD70470F4B84B0DA6942F0ED
:101B8C008052DA61DA6902F080520192019A9A6904
:101B9C0042F001029A619A6902F001020292029AE1
:101BAC005A6942F040025A615B6903F040030393A7
:101BBC00039B04B0704700BF001002400C4BD3F8DD
:101BCC00FC20D2015EBFD3F8FC2042F08072C3F837
:101BDC00FC200022074B5A601A6842F001021A607E
:101BEC0000BF00BF00BF5868B0FA80F040097047D2
:101BFC0000ED00E0001000E008B5FFF7BDFFFFF7B7
:101C0C00DDFFFEF7C9FBFFF7B6FF00F0E7FBBDE811
:101C1C0008400148FEF74EBC180000200023C0E924
:101C2C000033C0E9023370470023012803F101029D
:101C3C000AD11422DBB25343054A181D10448168A3
:101C4C0029B11A441369184713464008EDE7704749
:101C5C00B00000200120FEF73DBC0220FEF73ABC8C
:101C6C000420FEF737BC0820FEF734BC1020FEF72A
:101C7C0031BC08B52020FEF72DFC4020FEF72AFCD5
:101C8C008020FEF727FC4FF48070FEF723FCBDE8A4
:101C9C0008404FF40070FEF71DBC38B506244FF415
:101CAC008065A8B2FEF716FC013C4FEA4505F8D159
:101CBC0038BD0000344A08B51046062300F8043B32
:101CCC00FFF7ACFF072302F118001375FFF7A6FF0F
:101CDC00082302F12C0082F82830FFF79FFF09231C
:101CEC0002F1400082F83C30FFF798FF0A231721DD
:101CFC0002F1540082F85030FFF790FF02F16800B7
:101D0C0082F86410FFF78AFF02F17C0082F87810E9
:101D1C00FFF784FF02F1900082F88C10FFF77EFF32
:101D2C0002F1A40082F8A010FFF778FF82F8B4103B
:101D3C00282102F1B800FFF771FF02F1CC0082F804
:101D4C00C810FFF76BFF02F1E00082F8DC10FFF720
:101D5C0065FF02F1F40082F8F010FFF75FFF02F567
:101D6C00847082F80411FFF759FF02F58E7082F827
:101D7C001811FFF753FFBDE8084002F5987082F880
:101D8C002C11FFF74BBF00BFB000002038B5054C3D
:101D9C00A4F5A075143C201DFFF7C7FAAC42F9D18D
:101DAC0038BD00BFF0010020614B82B09A69013848
:101DBC0042F001029A619B6903F001030193019BBC
:101DCC0023281AD8DFE800F0121B22292E353A41BD
:101DDC00191919464D565B626B747980891919195A
:101DEC0019198E95191919199A9FA6AD514A53684C
:101DFC0043F0E06343F00103536002B070474D4A77
:101E0C00536823F0010343F0E063F5E7494A536854
:101E1C0043F0E06343F00203EEE7464A536823F0D5
:101E2C000203F0E7434A536843F0E06343F00403D2
:101E3C00E2E7404A536823F00403E4E73D4A536861
:101E4C0043F0E06343F00803D6E73A4A536823F0C3
:101E5C000803D8E7374A536843F0E06343F0C00304
:101E6C00CAE7344A536823F0C00343F0E06343F0FD
:101E7C004003C1E72F4A536823F0C003C3E72D4A40
:101E8C00536843F0E06343F44073B5E7294A536861
:101E9C0023F4407343F0E06343F40073ACE7254A4A
:101EAC00536823F4407343F0E06343F48073A3E777
:101EBC00204A536823F44073A5E71E4A536843F045
:101ECC00E06343F4406397E71A4A536823F4406392
:101EDC0043F0E06343F400638EE7164A536823F43F
:101EEC00406390E7134A536843F0E06343F40043C4
:101EFC0082E7104A536823F4004384E70D4A536881
:101F0C0023F0E06378E70B4A536823F0E06343F077
:101F1C00807371E7074A536823F0E06343F0007362
:101F2C006AE7044A536823F0E06343F0806363E795
:101F3C00001002400000014091FAA1F3B3FA83F3C0
:101F4C0070B50D0E0F2691FAA1F1B1FA81F1445939
:101F5C009B0006FA03F3890024EA03048A40224317
:101F6C00425170BD91FAA1F3B3FA83F370B50D0E23
:101F7C00042691FAA1F1B1FA81F144599B0006FAB9
:101F8C0003F3890024EA03048A402243425170BDC2
:101F9C00431C04D00C3151F80C3C5A1C01D10020CC
:101FAC007047834201F10C01F5D10120704700000C
:101FBC00431C2DE9F34106460F4600D1FEE7594B71
:101FCC0000F00F02C0F3031001F0070853F8224091
:101FDC00FFF706FDB8F1010F054615D194FAA4F3ED
:101FEC00B3FA83F30321200E2A589B0001FA03F362
:101FFC0022EA030294FAA4F3B3FA83F39B00994008
:10200C0011432950012213E0C7F30620B8F1030F46
:10201C000AD801A353F828F0372000081120000833
:10202C009B200008A9200008FEE7FFF7BDFE082250
:10203C002146284608F1FF38FFF77EFFB8F1010F63
:10204C0006D817F0080218BF04222146FFF78AFFB2
:10205C0094FAA4F2230EB2FA82F2E9580F239200FA
:10206C00934094FAA4F2B2FA82F2C7F301170B4030
:10207C009200012F23FA02F312D0022F3BD0082B2F
:10208C0021D1042221462846FFF756FF1BE07F286A
:10209C0001D10922CCE7FFF787FEFAE70022C7E758
:1020AC00042B04D1082221462846FFF745FF230ABA
:1020BC0093FAA3F3B3FA83F20123E968934021EA7C
:1020CC0014210B43EB60184B9A6942F001029A61A0
:1020DC009B6903F001030193019BA6F10D03012BF6
:1020EC0014D8124A536823F0E06343F080635360C2
:1020FC0002B0BDE8F081042B04D108222146284609
:10210C00FFF71AFFEB6823EA1423DBE70F2E02D04C
:10211C00133E012EECD8054A536823F0E06343F0DC
:10212C000073E4E7342B000800100240000001406B
:10213C00431C06D17047834202D18968FFF738BF30
:10214C000C310B685A1CF6D1FEE70B685A1C01D1F6
:10215C0000207047834201D1486870470C31F4E786
:10216C00431C01D0FFF7F1BF0020704703460868FD
:10217C00421C00D17047984201D1886870470C31DD
:10218C00F5E7431C01D0FFF7F1BF70470F4B1A68FE
:10219C0042F001021A6059680D4A0A405A601A68E6
:1021AC0022F0847222F480321A601A6822F480229F
:1021BC001A605A6822F4FE025A604FF41F029A60A9
:1021CC004FF00062034B9A60704700BF0010024052
:1021DC000000FFF800ED00E0043870470368164A71
:1021EC0084B093420BD1154B9A6942F400629A6108
:1021FC009B6903F400630193019B04B07047B3F136
:10220C00804F0BD103F50433DA6942F00102DA6135
:10221C00DB6903F001030293029BEEE7084A934249
:10222C00EBD1064BDA6942F00202DA61DB6903F0AA
:10223C0002030393039BE0E7002C014000100240D3
:10224C000004004003680E4A934206D102F5644232
:10225C00936923F4006393617047B3F1804F05D108
:10226C00084AD36923F00103D3617047064A9342AD
:10227C00FBD102F50332D36923F00203F4E700BF6C
:10228C00002C01400010024000040040431C0AD006
:10229C00094B98420AD003F59433984208D0B0F118
:1022AC00804F07D0FEE76FF00D0070471D20704780
:1022BC00192070471C20704700040040431C0AD0B2
:1022CC00094B98420AD003F59433984208D0B0F1E8
:1022DC00804F07D0FEE76FF00D0070471D20704750
:1022EC001B2070471C2070470004004038B5044682
:1022FC00FFF774FF0068FFF7C9FFD4E91212FEF76D
:10230C0081F82068FFF7C2FFFEF7ACF82268104690
:10231C00FFF7D4FF05461046FFF7B8FF85420BD0F8
:10232C00D4E912122846FEF76DF82068FFF7C6FFB5
:10233C00BDE83840FEF796B838BD0000431C0AD003
:10234C00084B98420BD003F59433984205D0B0F16A
:10235C00804F04D0FEE70020704702207047012018
:10236C00704700BF0004004008B50649FFF709FF9D
:10237C00C0F3C430431E032B00D9FEE780000438A1
:10238C0008BD00BF8C2B000803460A4910B508682D
:10239C000344EFF30882934205D90C224FF0FF302F
:1023AC00054B1A6010BD054A054C121B9342F4D222
:1023BC000B60F7E7240000204003002000280020D9
:1023CC0000040000FEE700001622024B4FF0FF3025
:1023DC001A607047400300200120704710B594B07C
:1023EC00142200210CA800F0AFFA142200210DEBEE
:1023FC00020000F0A9FA1022002101A800F0A4FAB2
:10240C0002244FF480330122CDE91143CDE90A2394
:10241C004FF4E0130AA80E921393FEF767F800B17D
:10242C00FEE70F23CDE905344FF480630790CDE927
:10243C000830214605A8FEF71BFA00B1FEE712236F
:10244C0001934FF40043CDE9033001A8FEF7EAFAFB
:10245C0000B1FEE714B010BD08B50320FDF7C0FFB6
:10246C00BDE8084000F0AFB908B5AFF30080FDF748
:10247C00D7FEFDF709FF00F0A5F9FAE7034610F0C7
:10248C00C00010B50DD1084AD9B252F8044B8C4299
:10249C0003D103F4E063184310BD01302328F4D1B9
:1024AC00FAE72320F8E700BF882D0008FFF76EFE3F
:1024BC000B480C490C4A002302E0D458C450043396
:1024CC00C4188C42F9D3094A094C002301E013606B
:1024DC000432A242FBD300F04FFAFFF7C5FF70475E
:1024EC000000002084000020282E0008840000201A
:1024FC0048030020FEE791420FD008D90123891A26
:10250C008B40984208D30130C8400138704720B145
:10251C000130521A9040F8E700207047C3B2222BCA
:10252C002DE9F04107460E4631D82C4A00F4E06400
:10253C0052F823301C43621C4ED020462849FFF72A
:10254C0027FDDFF8A0800546002831D0264AC4F3C9
:10255C00031152F8210004F00F0520FA05F3DB07F4
:10256C005FBF0123AB40034342F821301F4BD8F827
:10257C0000101D6830462A46FFF7BDFF1C49024675
:10258C00EBB22046BDE8F0410968FFF76DBA00F0E8
:10259C00C002C02A20D1C92B1ED8164B00F03F0216
:1025AC0053F822200D4B00F4E06453F82230C1E7BD
:1025BC003846012100F020F8D8F8001030460822E7
:1025CC00FFF799FF7F2898BF29463846BDE8F041B0
:1025DC0088BF012100F06EB8BDE8F081882D00089D
:1025EC008C2B000830000020F00100202C00002073
:1025FC0028000020602D0008C3B2222B2DE9F041E9
:10260C000D462AD8274A00F4E06452F823301C43C4
:10261C00621C44D0244EC4F3031756F8273004F040
:10262C000F0823FA08F3DB0710D520461F49FFF7E4
:10263C00AFFC10B12046FFF767FA012256F827309D
:10264C0002FA08F223EA020346F82730052D15D8C2
:10265C00DFE805F015211B1D1F2300F0C002C02A66
:10266C001DD1C92B1BD8124B00F03F0253F822206E
:10267C000C4B00F4E06453F82230C8E7FEE700216D
:10268C002046BDE8F041FFF793BC1021F8E720216C
:10269C00F6E70321F4E70121F2E70921F0E7BDE8B1
:1026AC00F08100BF882D0008F00100208C2B000861
:1026BC00602D0008C3B2222B1BD8174A00F4E0602F
:1026CC0052F823301843431C25D010F0C00F02BF22
:1026DC00124BC0F3031253F82220114B00F00F00E1
:1026EC0053F8203018BF0022C3F30F2391B11361AC
:1026FC00704700F0C002C02A0DD1C92B0BD8094B72
:10270C0000F03F0253F82220034B00F4E06053F832
:10271C002230D7E753617047882D0008080000204D
:10272C00342B0008602D0008C3B2222B1DD81A4A86
:10273C0000F4E06052F823301843431C26D010F00C
:10274C00C00F25D1154BC0F3031253F82230144A95
:10275C009B6800F00F0052F82020D84300EA1220AA
:10276C0080B2B0FA80F04009704700F0C002C02A75
:10277C000CD1C92B0AD80B4B00F03F0253F8222086
:10278C00054B00F4E06053F82230D5E70020704789
:10279C0000239B68FFDE00BF882D00080800002086
:1027AC00342B0008602D000838B5044648B1FFF7FB
:1027BC00D7F9054600F009F8FFF7D2F9431BA342FD
:1027CC00F8D338BD7047FFF717BA7047024B014674
:1027DC00186800F02DB800BF34000020024B0146F1
:1027EC00186800F0EFB800BF3400002070B50F4E31
:1027FC000C463168054611B900F0AEF83060214640
:10280C00284600F0A9F8431C03D14FF0FF342046B2
:10281C0070BDC41C24F00304A042F8D0211A284631
:10282C0000F09AF80130F2D1EFE700BF000200206F
:10283C002DE9F843CD1C25F0030508350C2D38BFC8
:10284C000C25002D064601DBA94204D90C2333606C
:10285C000020BDE8F883DFF8D48000F069F8D8F8E0
:10286C0000301C4644BB29463046FFF7BFFF431CD3
:10287C00044658D1D8F800402746002F43D1002CED
:10288C004BD023683946304604EB030900F064F85A
:10289C00814542D1216830466D1A2946FFF7A6FFC3
:1028AC0001303AD023682B442360D8F800305A68A2
:1028BC0062BBC8F800700FE02268521B20D40B2AB0
:1028CC0017D96119A342256018BF5960636808BF06
:1028DC00C8F8001062514B60304600F02FF804F13C
:1028EC000B00231D20F00700C21A1CBF1B1AA3509B
:1028FC00AFE76268A3420CBFC8F800205A60EBE750
:10290C0023466468AEE73C467F68B6E71A465B68C8
:10291C00A342FBD100235360DEE70C233046336027
:10292C0000F00CF894E70560D6E700BF0402002025
:10293C00014800F045B800BF44030020014800F0F6
:10294C0040B800BF4403002003460244934200D128
:10295C00704703F8011BF9E738B50023054D044611
:10296C0008462B60FFF710FD431C02D12B6803B106
:10297C00236038BD4003002070B500260C4D0D4B74
:10298C005B1B9C10A64209D1002600F0B1F80A4D41
:10299C000A4B5B1B9C10A64205D170BD55F8043B3D
:1029AC0098470136EEE755F8043B98470136F2E7B5
:1029BC00142E0008142E0008142E0008202E0008D7
:1029CC007047704738B50546002940D051F8043C93
:1029DC000C1F002BB8BFE418FFF7AAFF1C4A1368A2
:1029EC0033B9636014602846BDE83840FFF7A6BFD2
:1029FC00A34208D9206821188B4201BF19685B6873
:102A0C0009182160EDE71A465B680BB1A342FAD9AD
:102A1C0011685018A0420BD1206801445018834211
:102A2C001160E0D118685B68084410605360DAE705
:102A3C0002D90C232B60D6E7206821188B4201BFEA
:102A4C0019685B680918216063605460CBE738BD76
:102A5C000402002008B500F000F8062008B500F0CC
:102A6C002BF80120FFF7AEFC1F2938B505460C46A4
:102A7C0004D9162303604FF0FF3038BDC26B12B17E
:102A8C0052F821304BB9284600F030F82246014666
:102A9C002846BDE8384000F017B8012B0AD0591C65
:102AAC0003D1162303600120E7E70021204642F8FA
:102ABC00241098470020E0E7024B01461868FFF706
:102ACC00D3BF00BF3400002038B50023064D0446A8
:102ADC00084611462B60FFF777FC431C02D12B688C
:102AEC0003B1236038BD00BF40030020FFF774BC66
:102AFC00F8B500BFF8BC08BC9E467047F8B500BFDF
:082B0C00F8BC08BC9E467047AE
:102B1400010202030405060708090A0B0C0D0E0F37
:102B24001010020104030204081004004000000411
:102B34000101000002020000040400000808000073
:102B440010100000202000004040000080800000A1
:102B54000100010402000204040004040800080443
:102B64001000100420002004400040048000800471
:102B74000000000001020304000000000000000047
:102B840001020304060708090000000000000040D9
:102B940012800000000100000000004012900000BC
:102BA40001000000000000401212010001010000B9
:102BB400000000401210010002000000000000406C
:102BC4001292010002010000000000401291010075
:102BD4000300000000000040121202000301000084
:102BE4000000004012110200060000000004004032
:102BF4001295000007000000002C0140128D100007
:102C04000701000000040040121501000800000044
:102C1400002C0140128E000008010000002C01402D
:102C2400128D000009000000002C0140120E01006A
:102C340009010000002C0140120D01000A000000EF
:102C4400002C0140128E01000A010000002C0140FA
:102C5400128D01000B000000002C0140120E020036
:102C64000B010000002C0140120D02000F000000B7
:102C740000000040129100000F010000000000401D
:102C8400128F000010000000002C0140120D1100F2
:102C94001001000000040040129501001002000021
:102CA400000400401294010011000000002C0140B7
:102CB400128D1100110100000004004012150200E1
:102CC400110200000004004012140200130000006E
:102CD4000000004012110100130100000000004038
:102CE400120F0100140000000004004012940000C0
:102CF4001500000000040040121401001A00000036
:102D040000000040129001001A0100000000004081
:102D1400128F01001B00000000000040121002008E
:102D24001B01000000000040120F02001D00000003
:102D3400002C0140128E10001E000000002C0140E7
:102D4400120E11001F000000002C0140128E110011
:102D5400FFFFFFFF0000000000000000140000005F
:102D64001500000016000000170000001800000005
:102D7400190000001A0000001B0000001C000000E5
:102D84001D000000190000001800000017000000DA
:102D940016000000150000001400000013000000DD
:102DA4000F0000000C0000000B0000000A000000EF
:102DB40009000000080000001F0000001E000000C1
:102DC4001D0000001C0000002D0000002E0000006B
:102DD4002F000000000000000100000002000000BD
:102DE40003000000040000000500000006000000CD
:102DF4000700000010000000110000001A0000008D
:102E04001B000000120000000D0000000E00000076
:0C2E14006524000831010008C11C000802
:082E20000D010008991D0008D6
:102E2800010000001000000000080140000C0140F3
:102E38000010014000140140003002400000000072
:102E480000127A0048030020E80300000800000090
:102E580008000000380000200000000008020020E0
:102E680070020020D80200200000000000000000CE
:102E7800000000000000000000000000000000004A
:102E8800000000000000000000000000000000003A
:102E9800000000000000000000000000000000002A
:042EA8000000000026
:04000005080024B912
:00000001FF
